{
  "contractName": "Crowdfunding",
  "abi": [
    {
      "inputs": [],
      "stateMutability": "nonpayable",
      "type": "constructor"
    },
    {
      "inputs": [],
      "name": "author",
      "outputs": [
        {
          "internalType": "address",
          "name": "",
          "type": "address"
        }
      ],
      "stateMutability": "view",
      "type": "function"
    },
    {
      "inputs": [],
      "name": "closed",
      "outputs": [
        {
          "internalType": "bool",
          "name": "",
          "type": "bool"
        }
      ],
      "stateMutability": "view",
      "type": "function"
    },
    {
      "inputs": [],
      "name": "endTime",
      "outputs": [
        {
          "internalType": "uint256",
          "name": "",
          "type": "uint256"
        }
      ],
      "stateMutability": "view",
      "type": "function"
    },
    {
      "inputs": [
        {
          "internalType": "address",
          "name": "",
          "type": "address"
        }
      ],
      "name": "joined",
      "outputs": [
        {
          "internalType": "uint256",
          "name": "",
          "type": "uint256"
        }
      ],
      "stateMutability": "view",
      "type": "function"
    },
    {
      "inputs": [],
      "name": "price",
      "outputs": [
        {
          "internalType": "uint256",
          "name": "",
          "type": "uint256"
        }
      ],
      "stateMutability": "view",
      "type": "function"
    },
    {
      "stateMutability": "payable",
      "type": "receive"
    },
    {
      "inputs": [],
      "name": "withdrawFund",
      "outputs": [],
      "stateMutability": "nonpayable",
      "type": "function"
    },
    {
      "inputs": [],
      "name": "withdraw",
      "outputs": [],
      "stateMutability": "nonpayable",
      "type": "function"
    }
  ],
  "bytecode": "0x608060405266470de4df8200006003555f60045f6101000a81548160ff021916908315150217905550348015610033575f80fd5b50335f806101000a81548173ffffffffffffffffffffffffffffffffffffffff021916908373ffffffffffffffffffffffffffffffffffffffff16021790555062278d004261008291906100c3565b6002819055506100f6565b5f819050919050565b7f4e487b71000000000000000000000000000000000000000000000000000000005f52601160045260245ffd5b5f6100cd8261008d565b91506100d88361008d565b92508282019050808211156100f0576100ef610096565b5b92915050565b610ca8806101035f395ff3fe608060405260043610610073575f3560e01c8063a035b1fe1161004d578063a035b1fe14610252578063a6c3e6b91461027c578063e07fa3c1146102a6578063f887d019146102bc576101e4565b80633197cbb6146101e85780633ccfd60b14610212578063597e1fb514610228576101e4565b366101e45760025442108015610095575060045f9054906101000a900460ff16155b6100d4576040517f08c379a00000000000000000000000000000000000000000000000000000000081526004016100cb90610685565b60405180910390fd5b5f60015f3373ffffffffffffffffffffffffffffffffffffffff1673ffffffffffffffffffffffffffffffffffffffff1681526020019081526020015f205414610153576040517f08c379a000000000000000000000000000000000000000000000000000000000815260040161014a90610713565b60405180910390fd5b600354341015610198576040517f08c379a000000000000000000000000000000000000000000000000000000000815260040161018f9061077b565b60405180910390fd5b3460015f3373ffffffffffffffffffffffffffffffffffffffff1673ffffffffffffffffffffffffffffffffffffffff1681526020019081526020015f20819055506101e26102f8565b005b5f80fd5b3480156101f3575f80fd5b506101fc61033d565b60405161020991906107b1565b60405180910390f35b34801561021d575f80fd5b50610226610343565b005b348015610233575f80fd5b5061023c6104a3565b60405161024991906107e4565b60405180910390f35b34801561025d575f80fd5b506102666104b5565b60405161027391906107b1565b60405180910390f35b348015610287575f80fd5b506102906104bb565b60405161029d919061083c565b60405180910390f35b3480156102b1575f80fd5b506102ba6104de565b005b3480156102c7575f80fd5b506102e260048036038101906102dd9190610883565b610616565b6040516102ef91906107b1565b60405180910390f35b5f66071afd498d0000670de0b6b3a7640000476103159190610908565b61031f9190610938565b90508066470de4df8200006103349190610979565b60038190555050565b60025481565b6002544211610387576040517f08c379a000000000000000000000000000000000000000000000000000000000815260040161037e90610a1c565b60405180910390fd5b60045f9054906101000a900460ff16156103d6576040517f08c379a00000000000000000000000000000000000000000000000000000000081526004016103cd90610ad0565b60405180910390fd5b47678ac7230489e8000011610420576040517f08c379a000000000000000000000000000000000000000000000000000000000815260040161041790610b5e565b60405180910390fd5b3373ffffffffffffffffffffffffffffffffffffffff166108fc60015f3373ffffffffffffffffffffffffffffffffffffffff1673ffffffffffffffffffffffffffffffffffffffff1681526020019081526020015f205490811502906040515f60405180830381858888f193505050501580156104a0573d5f803e3d5ffd5b50565b60045f9054906101000a900460ff1681565b60035481565b5f8054906101000a900473ffffffffffffffffffffffffffffffffffffffff1681565b5f8054906101000a900473ffffffffffffffffffffffffffffffffffffffff1673ffffffffffffffffffffffffffffffffffffffff163373ffffffffffffffffffffffffffffffffffffffff161461056b576040517f08c379a000000000000000000000000000000000000000000000000000000000815260040161056290610bc6565b60405180910390fd5b678ac7230489e800004710156105b6576040517f08c379a00000000000000000000000000000000000000000000000000000000081526004016105ad90610c54565b60405180910390fd5b600160045f6101000a81548160ff0219169083151502179055503373ffffffffffffffffffffffffffffffffffffffff166108fc4790811502906040515f60405180830381858888f19350505050158015610613573d5f803e3d5ffd5b50565b6001602052805f5260405f205f915090505481565b5f82825260208201905092915050565b7f5468652063726f776466756e64696e672068617320656e6465640000000000005f82015250565b5f61066f601a8361062b565b915061067a8261063b565b602082019050919050565b5f6020820190508181035f83015261069c81610663565b9050919050565b7f596f7527766520616c72656164792070617274696369706174656420696e20635f8201527f726f776466756e64696e67000000000000000000000000000000000000000000602082015250565b5f6106fd602b8361062b565b9150610708826106a3565b604082019050919050565b5f6020820190508181035f83015261072a816106f1565b9050919050565b7f5468652062696420697320746f6f206c6f7700000000000000000000000000005f82015250565b5f61076560128361062b565b915061077082610731565b602082019050919050565b5f6020820190508181035f83015261079281610759565b9050919050565b5f819050919050565b6107ab81610799565b82525050565b5f6020820190506107c45f8301846107a2565b92915050565b5f8115159050919050565b6107de816107ca565b82525050565b5f6020820190506107f75f8301846107d5565b92915050565b5f73ffffffffffffffffffffffffffffffffffffffff82169050919050565b5f610826826107fd565b9050919050565b6108368161081c565b82525050565b5f60208201905061084f5f83018461082d565b92915050565b5f80fd5b6108628161081c565b811461086c575f80fd5b50565b5f8135905061087d81610859565b92915050565b5f6020828403121561089857610897610855565b5b5f6108a58482850161086f565b91505092915050565b7f4e487b71000000000000000000000000000000000000000000000000000000005f52601260045260245ffd5b7f4e487b71000000000000000000000000000000000000000000000000000000005f52601160045260245ffd5b5f61091282610799565b915061091d83610799565b92508261092d5761092c6108ae565b5b828204905092915050565b5f61094282610799565b915061094d83610799565b925082820261095b81610799565b91508282048414831517610972576109716108db565b5b5092915050565b5f61098382610799565b915061098e83610799565b92508282019050808211156109a6576109a56108db565b5b92915050565b7f49742773206e6f742074686520656e64206f66207468652063726f776473616c5f8201527f6520796574000000000000000000000000000000000000000000000000000000602082015250565b5f610a0660258361062b565b9150610a11826109ac565b604082019050919050565b5f6020820190508181035f830152610a33816109fa565b9050919050565b7f5468652063726f776466756e64696e67206861732072656163686564207468655f8201527f207374616e646172642c20616e64207468652063726f776466756e64696e672060208201527f66756e64732068617665206265656e2077697468647261776e00000000000000604082015250565b5f610aba60598361062b565b9150610ac582610a3a565b606082019050919050565b5f6020820190508181035f830152610ae781610aae565b9050919050565b7f4966207468652063726f776466756e64696e6720697320726561636865642c205f8201527f796f752063616e2774207769746864726177207468652066756e647300000000602082015250565b5f610b48603c8361062b565b9150610b5382610aee565b604082019050919050565b5f6020820190508181035f830152610b7581610b3c565b9050919050565b7f596f7520617265206e6f742074686520617574686f72000000000000000000005f82015250565b5f610bb060168361062b565b9150610bbb82610b7c565b602082019050919050565b5f6020820190508181035f830152610bdd81610ba4565b9050919050565b7f5468652063726f776466756e64696e6720676f616c20776173206e6f742072655f8201527f6163686564000000000000000000000000000000000000000000000000000000602082015250565b5f610c3e60258361062b565b9150610c4982610be4565b604082019050919050565b5f6020820190508181035f830152610c6b81610c32565b905091905056fea26469706673582212202df800b2ded23d141c2046bdfffa966717ae9bbe7bc2420d6995b5c8562895bf64736f6c63430008150033",
  "immutableReferences": {},
  "source": "// SPDX-License-Identifier: UNLICENSED \npragma solidity >=0.6.0 <0.8.24;\ncontract Crowdfunding {\n    // \n    address public author;\n    // \n    mapping(address => uint) public joined;\n    // \n    uint constant Target = 10 ether;\n    // \n    uint public endTime;\n    // \n    uint public price = 0.02 ether;\n    // \n    bool public closed = false;\n    // \n    constructor() {\n        author = msg.sender;\n        endTime = block.timestamp + 30 days;\n    }\n    // \n    function updatePrice() internal {\n        uint rise = address(this).balance / 1 ether * 0.002 ether;\n        price = 0.02 ether + rise;\n    }\n    // \n    receive() external payable {\n        // \n        require(block.timestamp < endTime && !closed , \"The crowdfunding has ended\");\n        // \n        require(joined[msg.sender] == 0, \"You've already participated in crowdfunding\");\n        // \n        require(msg.value >= price, \"The bid is too low\");\n        joined[msg.sender] = msg.value;\n        updatePrice();\n    }\n    // \n    function withdrawFund() external {\n        // \n        require(msg.sender == author, \"You are not the author\");\n        // \n        require(address(this).balance >= Target, \"The crowdfunding goal was not reached\");\n        closed = true;\n        payable(msg.sender).transfer(address(this).balance);\n    }\n    // \n    function withdraw() external {\n        // \n        require(block.timestamp > endTime, \"It's not the end of the crowdsale yet\");\n        //  \n        require(!closed, \"The crowdfunding has reached the standard, and the crowdfunding funds have been withdrawn\");\n        // \n        require(Target > address(this).balance, \"If the crowdfunding is reached, you can't withdraw the funds\");\n        payable(msg.sender).transfer(joined[msg.sender]);\n    }\n}\n",
  "sourcePath": "/Users/chengtianqing/project/personal/web3/crowdfunding/contracts/Crowdfunding.sol",
  "compiler": {
    "name": "solc",
    "version": "0.8.21+commit.d9974bed.Emscripten.clang"
  },
  "schemaVersion": "3.4.16",
  "updatedAt": "2024-08-10T06:21:45.146Z",
  "devdoc": {
    "kind": "dev",
    "methods": {},
    "version": 1
  },
  "userdoc": {
    "kind": "user",
    "methods": {},
    "version": 1
  }
}