{
  "contractName": "CrowdfundingCamp",
  "abi": [
    {
      "inputs": [],
      "stateMutability": "nonpayable",
      "type": "constructor"
    },
    {
      "anonymous": false,
      "inputs": [
        {
          "indexed": true,
          "internalType": "address",
          "name": "user",
          "type": "address"
        },
        {
          "indexed": false,
          "internalType": "uint256",
          "name": "price",
          "type": "uint256"
        }
      ],
      "name": "Join",
      "type": "event"
    },
    {
      "inputs": [],
      "name": "author",
      "outputs": [
        {
          "internalType": "address",
          "name": "",
          "type": "address"
        }
      ],
      "stateMutability": "view",
      "type": "function",
      "constant": true
    },
    {
      "inputs": [],
      "name": "closed",
      "outputs": [
        {
          "internalType": "bool",
          "name": "",
          "type": "bool"
        }
      ],
      "stateMutability": "view",
      "type": "function",
      "constant": true
    },
    {
      "inputs": [],
      "name": "endTime",
      "outputs": [
        {
          "internalType": "uint256",
          "name": "",
          "type": "uint256"
        }
      ],
      "stateMutability": "view",
      "type": "function",
      "constant": true
    },
    {
      "inputs": [
        {
          "internalType": "address",
          "name": "",
          "type": "address"
        }
      ],
      "name": "joined",
      "outputs": [
        {
          "internalType": "uint256",
          "name": "",
          "type": "uint256"
        }
      ],
      "stateMutability": "view",
      "type": "function",
      "constant": true
    },
    {
      "inputs": [],
      "name": "price",
      "outputs": [
        {
          "internalType": "uint256",
          "name": "",
          "type": "uint256"
        }
      ],
      "stateMutability": "view",
      "type": "function",
      "constant": true
    },
    {
      "stateMutability": "payable",
      "type": "receive",
      "payable": true
    },
    {
      "inputs": [],
      "name": "withdrawFund",
      "outputs": [],
      "stateMutability": "nonpayable",
      "type": "function"
    },
    {
      "inputs": [],
      "name": "withdraw",
      "outputs": [],
      "stateMutability": "nonpayable",
      "type": "function"
    }
  ],
  "bytecode": "0x608060405266470de4df8200006003556000600460006101000a81548160ff02191690831515021790555034801561003657600080fd5b50336000806101000a81548173ffffffffffffffffffffffffffffffffffffffff021916908373ffffffffffffffffffffffffffffffffffffffff16021790555062278d00426100869190610091565b600281905550610120565b600061009c826100e7565b91506100a7836100e7565b9250827fffffffffffffffffffffffffffffffffffffffffffffffffffffffffffffffff038211156100dc576100db6100f1565b5b828201905092915050565b6000819050919050565b7f4e487b7100000000000000000000000000000000000000000000000000000000600052601160045260246000fd5b610d1e8061012f6000396000f3fe6080604052600436106100745760003560e01c8063a035b1fe1161004e578063a035b1fe146102ab578063a6c3e6b9146102d6578063e07fa3c114610301578063f887d0191461031857610239565b80633197cbb61461023e5780633ccfd60b14610269578063597e1fb51461028057610239565b3661023957600254421080156100975750600460009054906101000a900460ff16155b6100d6576040517f08c379a00000000000000000000000000000000000000000000000000000000081526004016100cd90610a1e565b60405180910390fd5b6000600160003373ffffffffffffffffffffffffffffffffffffffff1673ffffffffffffffffffffffffffffffffffffffff1681526020019081526020016000205414610158576040517f08c379a000000000000000000000000000000000000000000000000000000000815260040161014f90610ade565b60405180910390fd5b60035434101561019d576040517f08c379a000000000000000000000000000000000000000000000000000000000815260040161019490610afe565b60405180910390fd5b34600160003373ffffffffffffffffffffffffffffffffffffffff1673ffffffffffffffffffffffffffffffffffffffff168152602001908152602001600020819055506101e9610355565b3373ffffffffffffffffffffffffffffffffffffffff167fb4e09949657f21548b58afe74e7b86cd2295da5ff1598ae1e5faecb1cf19ca953460405161022f9190610b1e565b60405180910390a2005b600080fd5b34801561024a57600080fd5b5061025361039b565b6040516102609190610b1e565b60405180910390f35b34801561027557600080fd5b5061027e6103a1565b005b34801561028c57600080fd5b50610295610507565b6040516102a29190610a03565b60405180910390f35b3480156102b757600080fd5b506102c061051a565b6040516102cd9190610b1e565b60405180910390f35b3480156102e257600080fd5b506102eb610520565b6040516102f891906109e8565b60405180910390f35b34801561030d57600080fd5b50610316610544565b005b34801561032457600080fd5b5061033f600480360381019061033a91906106ae565b610681565b60405161034c9190610b1e565b60405180910390f35b600066071afd498d0000670de0b6b3a7640000476103739190610ba0565b61037d9190610bd1565b90508066470de4df8200006103929190610b4a565b60038190555050565b60025481565b60025442116103e5576040517f08c379a00000000000000000000000000000000000000000000000000000000081526004016103dc90610a3e565b60405180910390fd5b600460009054906101000a900460ff1615610435576040517f08c379a000000000000000000000000000000000000000000000000000000000815260040161042c90610a7e565b60405180910390fd5b47678ac7230489e800001161047f576040517f08c379a000000000000000000000000000000000000000000000000000000000815260040161047690610a9e565b60405180910390fd5b3373ffffffffffffffffffffffffffffffffffffffff166108fc600160003373ffffffffffffffffffffffffffffffffffffffff1673ffffffffffffffffffffffffffffffffffffffff168152602001908152602001600020549081150290604051600060405180830381858888f19350505050158015610504573d6000803e3d6000fd5b50565b600460009054906101000a900460ff1681565b60035481565b60008054906101000a900473ffffffffffffffffffffffffffffffffffffffff1681565b60008054906101000a900473ffffffffffffffffffffffffffffffffffffffff1673ffffffffffffffffffffffffffffffffffffffff163373ffffffffffffffffffffffffffffffffffffffff16146105d2576040517f08c379a00000000000000000000000000000000000000000000000000000000081526004016105c990610a5e565b60405180910390fd5b678ac7230489e8000047101561061d576040517f08c379a000000000000000000000000000000000000000000000000000000000815260040161061490610abe565b60405180910390fd5b6001600460006101000a81548160ff0219169083151502179055503373ffffffffffffffffffffffffffffffffffffffff166108fc479081150290604051600060405180830381858888f1935050505015801561067e573d6000803e3d6000fd5b50565b60016020528060005260406000206000915090505481565b6000813590506106a881610cd1565b92915050565b6000602082840312156106c057600080fd5b60006106ce84828501610699565b91505092915050565b6106e081610c2b565b82525050565b6106ef81610c3d565b82525050565b6000610702601a83610b39565b91507f5468652063726f776466756e64696e672068617320656e6465640000000000006000830152602082019050919050565b6000610742602583610b39565b91507f49742773206e6f742074686520656e64206f66207468652063726f776473616c60008301527f65207965740000000000000000000000000000000000000000000000000000006020830152604082019050919050565b60006107a8601683610b39565b91507f596f7520617265206e6f742074686520617574686f72000000000000000000006000830152602082019050919050565b60006107e8605983610b39565b91507f5468652063726f776466756e64696e672068617320726561636865642074686560008301527f207374616e646172642c20616e64207468652063726f776466756e64696e672060208301527f66756e64732068617665206265656e2077697468647261776e000000000000006040830152606082019050919050565b6000610874603c83610b39565b91507f4966207468652063726f776466756e64696e6720697320726561636865642c2060008301527f796f752063616e2774207769746864726177207468652066756e6473000000006020830152604082019050919050565b60006108da602583610b39565b91507f5468652063726f776466756e64696e6720676f616c20776173206e6f7420726560008301527f61636865640000000000000000000000000000000000000000000000000000006020830152604082019050919050565b6000610940602b83610b39565b91507f596f7527766520616c72656164792070617274696369706174656420696e206360008301527f726f776466756e64696e670000000000000000000000000000000000000000006020830152604082019050919050565b60006109a6601283610b39565b91507f5468652062696420697320746f6f206c6f7700000000000000000000000000006000830152602082019050919050565b6109e281610c69565b82525050565b60006020820190506109fd60008301846106d7565b92915050565b6000602082019050610a1860008301846106e6565b92915050565b60006020820190508181036000830152610a37816106f5565b9050919050565b60006020820190508181036000830152610a5781610735565b9050919050565b60006020820190508181036000830152610a778161079b565b9050919050565b60006020820190508181036000830152610a97816107db565b9050919050565b60006020820190508181036000830152610ab781610867565b9050919050565b60006020820190508181036000830152610ad7816108cd565b9050919050565b60006020820190508181036000830152610af781610933565b9050919050565b60006020820190508181036000830152610b1781610999565b9050919050565b6000602082019050610b3360008301846109d9565b92915050565b600082825260208201905092915050565b6000610b5582610c69565b9150610b6083610c69565b9250827fffffffffffffffffffffffffffffffffffffffffffffffffffffffffffffffff03821115610b9557610b94610c73565b5b828201905092915050565b6000610bab82610c69565b9150610bb683610c69565b925082610bc657610bc5610ca2565b5b828204905092915050565b6000610bdc82610c69565b9150610be783610c69565b9250817fffffffffffffffffffffffffffffffffffffffffffffffffffffffffffffffff0483118215151615610c2057610c1f610c73565b5b828202905092915050565b6000610c3682610c49565b9050919050565b60008115159050919050565b600073ffffffffffffffffffffffffffffffffffffffff82169050919050565b6000819050919050565b7f4e487b7100000000000000000000000000000000000000000000000000000000600052601160045260246000fd5b7f4e487b7100000000000000000000000000000000000000000000000000000000600052601260045260246000fd5b610cda81610c2b565b8114610ce557600080fd5b5056fea2646970667358221220e5620b861ab6113f755190619b764b5201c9a25f0bcb0a481b6e6926faf8677964736f6c63430008000033",
  "immutableReferences": {},
  "source": "// SPDX-License-Identifier: MIT\npragma solidity ^0.8.0;\ncontract CrowdfundingCamp {\n    // \n    address public author;\n    // \n    mapping(address => uint) public joined;\n    // \n    uint constant Target = 10 ether;\n    // \n    uint public endTime;\n    // \n    uint public price = 0.02 ether;\n    // \n    bool public closed = false;\n\n    // address[] joinAccouts;\n    event Join(address indexed user, uint price);\n\n    // \n    constructor() {\n        author = msg.sender;\n        endTime = block.timestamp + 30 days;\n    }\n    // \n    function updatePrice() internal {\n        uint rise = address(this).balance / 1 ether * 0.002 ether;\n        price = 0.02 ether + rise;\n    }\n\n    // \n    receive() external payable {\n        // \n        require(block.timestamp < endTime && !closed , \"The crowdfunding has ended\");\n        // \n        require(joined[msg.sender] == 0, \"You've already participated in crowdfunding\");\n        // \n        require(msg.value >= price, \"The bid is too low\");\n        joined[msg.sender] = msg.value;\n        updatePrice();\n\n        emit Join(msg.sender, msg.value);\n    }\n    // \n    function withdrawFund() external {\n        // \n        require(msg.sender == author, \"You are not the author\");\n        // \n        require(address(this).balance >= Target, \"The crowdfunding goal was not reached\");\n        closed = true;\n        payable(msg.sender).transfer(address(this).balance);\n    }\n    // \n    function withdraw() external {\n        // \n        require(block.timestamp > endTime, \"It's not the end of the crowdsale yet\");\n        //  \n        require(!closed, \"The crowdfunding has reached the standard, and the crowdfunding funds have been withdrawn\");\n        // \n        require(Target > address(this).balance, \"If the crowdfunding is reached, you can't withdraw the funds\");\n        payable(msg.sender).transfer(joined[msg.sender]);\n    }\n}\n",
  "sourcePath": "/Users/chengtianqing/project/personal/web3/crowdfunding/contracts/CrowdfundingCamp.sol",
  "compiler": {
    "name": "solc",
    "version": "0.8.0+commit.c7dfd78e.Emscripten.clang"
  },
  "schemaVersion": "3.4.16",
  "updatedAt": "2024-08-12T02:34:55.093Z",
  "networkType": "ethereum",
  "devdoc": {
    "kind": "dev",
    "methods": {},
    "version": 1
  },
  "userdoc": {
    "kind": "user",
    "methods": {},
    "version": 1
  }
}